{
  "_format": "hh-sol-artifact-1",
  "contractName": "ULTRAJAGUAR",
  "sourceName": "contracts/ULTRAJAGUAR.sol",
  "abi": [
    {
      "inputs": [
        {
          "internalType": "address",
          "name": "marketplaceAddress",
          "type": "address"
        }
      ],
      "stateMutability": "nonpayable",
      "type": "constructor"
    },
    {
      "anonymous": false,
      "inputs": [
        {
          "indexed": true,
          "internalType": "address",
          "name": "owner",
          "type": "address"
        },
        {
          "indexed": true,
          "internalType": "address",
          "name": "approved",
          "type": "address"
        },
        {
          "indexed": true,
          "internalType": "uint256",
          "name": "tokenId",
          "type": "uint256"
        }
      ],
      "name": "Approval",
      "type": "event"
    },
    {
      "anonymous": false,
      "inputs": [
        {
          "indexed": true,
          "internalType": "address",
          "name": "owner",
          "type": "address"
        },
        {
          "indexed": true,
          "internalType": "address",
          "name": "operator",
          "type": "address"
        },
        {
          "indexed": false,
          "internalType": "bool",
          "name": "approved",
          "type": "bool"
        }
      ],
      "name": "ApprovalForAll",
      "type": "event"
    },
    {
      "anonymous": false,
      "inputs": [
        {
          "indexed": true,
          "internalType": "address",
          "name": "user",
          "type": "address"
        },
        {
          "indexed": false,
          "internalType": "bool",
          "name": "value",
          "type": "bool"
        }
      ],
      "name": "BlacklistUpdated",
      "type": "event"
    },
    {
      "anonymous": false,
      "inputs": [
        {
          "indexed": false,
          "internalType": "address",
          "name": "account",
          "type": "address"
        }
      ],
      "name": "Paused",
      "type": "event"
    },
    {
      "anonymous": false,
      "inputs": [
        {
          "indexed": true,
          "internalType": "bytes32",
          "name": "role",
          "type": "bytes32"
        },
        {
          "indexed": true,
          "internalType": "bytes32",
          "name": "previousAdminRole",
          "type": "bytes32"
        },
        {
          "indexed": true,
          "internalType": "bytes32",
          "name": "newAdminRole",
          "type": "bytes32"
        }
      ],
      "name": "RoleAdminChanged",
      "type": "event"
    },
    {
      "anonymous": false,
      "inputs": [
        {
          "indexed": true,
          "internalType": "bytes32",
          "name": "role",
          "type": "bytes32"
        },
        {
          "indexed": true,
          "internalType": "address",
          "name": "account",
          "type": "address"
        },
        {
          "indexed": true,
          "internalType": "address",
          "name": "sender",
          "type": "address"
        }
      ],
      "name": "RoleGranted",
      "type": "event"
    },
    {
      "anonymous": false,
      "inputs": [
        {
          "indexed": true,
          "internalType": "bytes32",
          "name": "role",
          "type": "bytes32"
        },
        {
          "indexed": true,
          "internalType": "address",
          "name": "account",
          "type": "address"
        },
        {
          "indexed": true,
          "internalType": "address",
          "name": "sender",
          "type": "address"
        }
      ],
      "name": "RoleRevoked",
      "type": "event"
    },
    {
      "anonymous": false,
      "inputs": [
        {
          "indexed": true,
          "internalType": "address",
          "name": "from",
          "type": "address"
        },
        {
          "indexed": true,
          "internalType": "address",
          "name": "to",
          "type": "address"
        },
        {
          "indexed": true,
          "internalType": "uint256",
          "name": "tokenId",
          "type": "uint256"
        }
      ],
      "name": "Transfer",
      "type": "event"
    },
    {
      "anonymous": false,
      "inputs": [
        {
          "indexed": false,
          "internalType": "address",
          "name": "account",
          "type": "address"
        }
      ],
      "name": "Unpaused",
      "type": "event"
    },
    {
      "inputs": [],
      "name": "BLOCKER_ROLE",
      "outputs": [
        {
          "internalType": "bytes32",
          "name": "",
          "type": "bytes32"
        }
      ],
      "stateMutability": "view",
      "type": "function"
    },
    {
      "inputs": [],
      "name": "BURNER_ROLE",
      "outputs": [
        {
          "internalType": "bytes32",
          "name": "",
          "type": "bytes32"
        }
      ],
      "stateMutability": "view",
      "type": "function"
    },
    {
      "inputs": [],
      "name": "DEFAULT_ADMIN_ROLE",
      "outputs": [
        {
          "internalType": "bytes32",
          "name": "",
          "type": "bytes32"
        }
      ],
      "stateMutability": "view",
      "type": "function"
    },
    {
      "inputs": [],
      "name": "PAUSER_ROLE",
      "outputs": [
        {
          "internalType": "bytes32",
          "name": "",
          "type": "bytes32"
        }
      ],
      "stateMutability": "view",
      "type": "function"
    },
    {
      "inputs": [
        {
          "internalType": "address",
          "name": "to",
          "type": "address"
        },
        {
          "internalType": "uint256",
          "name": "tokenId",
          "type": "uint256"
        }
      ],
      "name": "approve",
      "outputs": [],
      "stateMutability": "nonpayable",
      "type": "function"
    },
    {
      "inputs": [
        {
          "internalType": "address",
          "name": "owner",
          "type": "address"
        }
      ],
      "name": "balanceOf",
      "outputs": [
        {
          "internalType": "uint256",
          "name": "",
          "type": "uint256"
        }
      ],
      "stateMutability": "view",
      "type": "function"
    },
    {
      "inputs": [
        {
          "internalType": "address",
          "name": "user",
          "type": "address"
        },
        {
          "internalType": "bool",
          "name": "value",
          "type": "bool"
        }
      ],
      "name": "blacklistUpdate",
      "outputs": [],
      "stateMutability": "nonpayable",
      "type": "function"
    },
    {
      "inputs": [
        {
          "internalType": "uint256",
          "name": "tokenId",
          "type": "uint256"
        }
      ],
      "name": "burn",
      "outputs": [],
      "stateMutability": "nonpayable",
      "type": "function"
    },
    {
      "inputs": [
        {
          "internalType": "string",
          "name": "tokenURI",
          "type": "string"
        }
      ],
      "name": "createToken",
      "outputs": [
        {
          "internalType": "uint256",
          "name": "",
          "type": "uint256"
        }
      ],
      "stateMutability": "nonpayable",
      "type": "function"
    },
    {
      "inputs": [
        {
          "internalType": "uint256",
          "name": "tokenId",
          "type": "uint256"
        }
      ],
      "name": "getApproved",
      "outputs": [
        {
          "internalType": "address",
          "name": "",
          "type": "address"
        }
      ],
      "stateMutability": "view",
      "type": "function"
    },
    {
      "inputs": [
        {
          "internalType": "bytes32",
          "name": "role",
          "type": "bytes32"
        }
      ],
      "name": "getRoleAdmin",
      "outputs": [
        {
          "internalType": "bytes32",
          "name": "",
          "type": "bytes32"
        }
      ],
      "stateMutability": "view",
      "type": "function"
    },
    {
      "inputs": [
        {
          "internalType": "bytes32",
          "name": "role",
          "type": "bytes32"
        },
        {
          "internalType": "address",
          "name": "account",
          "type": "address"
        }
      ],
      "name": "grantRole",
      "outputs": [],
      "stateMutability": "nonpayable",
      "type": "function"
    },
    {
      "inputs": [
        {
          "internalType": "bytes32",
          "name": "role",
          "type": "bytes32"
        },
        {
          "internalType": "address",
          "name": "account",
          "type": "address"
        }
      ],
      "name": "hasRole",
      "outputs": [
        {
          "internalType": "bool",
          "name": "",
          "type": "bool"
        }
      ],
      "stateMutability": "view",
      "type": "function"
    },
    {
      "inputs": [
        {
          "internalType": "address",
          "name": "owner",
          "type": "address"
        },
        {
          "internalType": "address",
          "name": "operator",
          "type": "address"
        }
      ],
      "name": "isApprovedForAll",
      "outputs": [
        {
          "internalType": "bool",
          "name": "",
          "type": "bool"
        }
      ],
      "stateMutability": "view",
      "type": "function"
    },
    {
      "inputs": [
        {
          "internalType": "address",
          "name": "user",
          "type": "address"
        }
      ],
      "name": "isBlackListed",
      "outputs": [
        {
          "internalType": "bool",
          "name": "",
          "type": "bool"
        }
      ],
      "stateMutability": "view",
      "type": "function"
    },
    {
      "inputs": [],
      "name": "name",
      "outputs": [
        {
          "internalType": "string",
          "name": "",
          "type": "string"
        }
      ],
      "stateMutability": "view",
      "type": "function"
    },
    {
      "inputs": [
        {
          "internalType": "uint256",
          "name": "tokenId",
          "type": "uint256"
        }
      ],
      "name": "ownerOf",
      "outputs": [
        {
          "internalType": "address",
          "name": "",
          "type": "address"
        }
      ],
      "stateMutability": "view",
      "type": "function"
    },
    {
      "inputs": [],
      "name": "pause",
      "outputs": [],
      "stateMutability": "nonpayable",
      "type": "function"
    },
    {
      "inputs": [],
      "name": "paused",
      "outputs": [
        {
          "internalType": "bool",
          "name": "",
          "type": "bool"
        }
      ],
      "stateMutability": "view",
      "type": "function"
    },
    {
      "inputs": [
        {
          "internalType": "bytes32",
          "name": "role",
          "type": "bytes32"
        },
        {
          "internalType": "address",
          "name": "account",
          "type": "address"
        }
      ],
      "name": "renounceRole",
      "outputs": [],
      "stateMutability": "nonpayable",
      "type": "function"
    },
    {
      "inputs": [
        {
          "internalType": "bytes32",
          "name": "role",
          "type": "bytes32"
        },
        {
          "internalType": "address",
          "name": "account",
          "type": "address"
        }
      ],
      "name": "revokeRole",
      "outputs": [],
      "stateMutability": "nonpayable",
      "type": "function"
    },
    {
      "inputs": [
        {
          "internalType": "address",
          "name": "from",
          "type": "address"
        },
        {
          "internalType": "address",
          "name": "to",
          "type": "address"
        },
        {
          "internalType": "uint256",
          "name": "tokenId",
          "type": "uint256"
        }
      ],
      "name": "safeTransferFrom",
      "outputs": [],
      "stateMutability": "nonpayable",
      "type": "function"
    },
    {
      "inputs": [
        {
          "internalType": "address",
          "name": "from",
          "type": "address"
        },
        {
          "internalType": "address",
          "name": "to",
          "type": "address"
        },
        {
          "internalType": "uint256",
          "name": "tokenId",
          "type": "uint256"
        },
        {
          "internalType": "bytes",
          "name": "data",
          "type": "bytes"
        }
      ],
      "name": "safeTransferFrom",
      "outputs": [],
      "stateMutability": "nonpayable",
      "type": "function"
    },
    {
      "inputs": [
        {
          "internalType": "address",
          "name": "operator",
          "type": "address"
        },
        {
          "internalType": "bool",
          "name": "approved",
          "type": "bool"
        }
      ],
      "name": "setApprovalForAll",
      "outputs": [],
      "stateMutability": "nonpayable",
      "type": "function"
    },
    {
      "inputs": [
        {
          "internalType": "bytes4",
          "name": "interfaceId",
          "type": "bytes4"
        }
      ],
      "name": "supportsInterface",
      "outputs": [
        {
          "internalType": "bool",
          "name": "",
          "type": "bool"
        }
      ],
      "stateMutability": "view",
      "type": "function"
    },
    {
      "inputs": [],
      "name": "symbol",
      "outputs": [
        {
          "internalType": "string",
          "name": "",
          "type": "string"
        }
      ],
      "stateMutability": "view",
      "type": "function"
    },
    {
      "inputs": [
        {
          "internalType": "uint256",
          "name": "index",
          "type": "uint256"
        }
      ],
      "name": "tokenByIndex",
      "outputs": [
        {
          "internalType": "uint256",
          "name": "",
          "type": "uint256"
        }
      ],
      "stateMutability": "view",
      "type": "function"
    },
    {
      "inputs": [
        {
          "internalType": "address",
          "name": "owner",
          "type": "address"
        },
        {
          "internalType": "uint256",
          "name": "index",
          "type": "uint256"
        }
      ],
      "name": "tokenOfOwnerByIndex",
      "outputs": [
        {
          "internalType": "uint256",
          "name": "",
          "type": "uint256"
        }
      ],
      "stateMutability": "view",
      "type": "function"
    },
    {
      "inputs": [
        {
          "internalType": "uint256",
          "name": "tokenId",
          "type": "uint256"
        }
      ],
      "name": "tokenURI",
      "outputs": [
        {
          "internalType": "string",
          "name": "",
          "type": "string"
        }
      ],
      "stateMutability": "view",
      "type": "function"
    },
    {
      "inputs": [],
      "name": "totalSupply",
      "outputs": [
        {
          "internalType": "uint256",
          "name": "",
          "type": "uint256"
        }
      ],
      "stateMutability": "view",
      "type": "function"
    },
    {
      "inputs": [
        {
          "internalType": "address",
          "name": "from",
          "type": "address"
        },
        {
          "internalType": "address",
          "name": "to",
          "type": "address"
        },
        {
          "internalType": "uint256",
          "name": "tokenId",
          "type": "uint256"
        }
      ],
      "name": "transferFrom",
      "outputs": [],
      "stateMutability": "nonpayable",
      "type": "function"
    },
    {
      "inputs": [],
      "name": "unpause",
      "outputs": [],
      "stateMutability": "nonpayable",
      "type": "function"
    }
  ],
  "bytecode": "0x6080604052601080546001600160a01b03191673723b5ad644bde85a51d30c92ffc7bdb40f940fc61790553480156200003757600080fd5b50604051620028e4380380620028e48339810160408190526200005a9162000308565b604080518082018252600b8082526a2aa62a2920a520a3aaa0a960a91b602080840182815285518087019096529285528401528151919291620000a09160009162000262565b508051620000b690600190602084019062000262565b5050600b805460ff1916905550601054620000dd906000906001600160a01b0316620001ae565b60105462000116907f65d7a28e3265b37a6474929f336521b332c1681b933f6cb9f3376673440d862a906001600160a01b0316620001ae565b6010546200014f907f8f2e0057cd5e35397007bcc8f5418f73dd64cc6e4073a0276563f247c3079037906001600160a01b0316620001ae565b60105462000188907f3c11d16cbaffd01df69ce1c404f6340ee057498f5f00246190ea54220576a848906001600160a01b0316620001ae565b600f80546001600160a01b0319166001600160a01b039290921691909117905562000375565b620001ba8282620001be565b5050565b6000828152600c602090815260408083206001600160a01b038516845290915290205460ff16620001ba576000828152600c602090815260408083206001600160a01b03851684529091529020805460ff191660011790556200021e3390565b6001600160a01b0316816001600160a01b0316837f2f8788117e7eff1d82e926ec794901d17c78024a50270940304540a733656f0d60405160405180910390a45050565b828054620002709062000338565b90600052602060002090601f016020900481019282620002945760008555620002df565b82601f10620002af57805160ff1916838001178555620002df565b82800160010185558215620002df579182015b82811115620002df578251825591602001919060010190620002c2565b50620002ed929150620002f1565b5090565b5b80821115620002ed5760008155600101620002f2565b6000602082840312156200031a578081fd5b81516001600160a01b038116811462000331578182fd5b9392505050565b600181811c908216806200034d57607f821691505b602082108114156200036f57634e487b7160e01b600052602260045260246000fd5b50919050565b61255f80620003856000396000f3fe608060405234801561001057600080fd5b50600436106101f05760003560e01c80635c975abb1161010f578063b351dfe8116100a2578063e45c084d11610071578063e45c084d14610429578063e47d606014610450578063e63ab1e91461047c578063e985e9c5146104a3576101f0565b8063b351dfe8146103dd578063b88d4fde146103f0578063c87b56dd14610403578063d547741f14610416576101f0565b806391d14854116100de57806391d14854146103a757806395d89b41146103ba578063a217fddf146103c2578063a22cb465146103ca576101f0565b80635c975abb1461036e5780636352211e1461037957806370a082311461038c5780638456cb591461039f576101f0565b80632f2ff15d1161018757806342842e0e1161015657806342842e0e1461032257806342966c681461033557806345576f94146103485780634f6ccce71461035b576101f0565b80632f2ff15d146102e15780632f745c59146102f457806336568abe146103075780633f4ba83a1461031a576101f0565b806318160ddd116101c357806318160ddd1461027257806323b872dd14610284578063248a9ca314610297578063282c51f3146102ba576101f0565b806301ffc9a7146101f557806306fdde031461021d578063081812fc14610232578063095ea7b31461025d575b600080fd5b610208610203366004612184565b6104df565b60405190151581526020015b60405180910390f35b6102256104f2565b604051610214919061230f565b61024561024036600461214a565b610584565b6040516001600160a01b039091168152602001610214565b61027061026b366004612121565b6105ab565b005b6008545b604051908152602001610214565b610270610292366004612033565b6106c6565b6102766102a536600461214a565b6000908152600c602052604090206001015490565b6102767f3c11d16cbaffd01df69ce1c404f6340ee057498f5f00246190ea54220576a84881565b6102706102ef366004612162565b6106f8565b610276610302366004612121565b61071d565b610270610315366004612162565b6107b3565b610270610831565b610270610330366004612033565b610866565b61027061034336600461214a565b610881565b6102766103563660046121bc565b6108af565b61027661036936600461214a565b6108f7565b600b5460ff16610208565b61024561038736600461214a565b610998565b61027661039a366004611fe7565b6109f8565b610270610a7e565b6102086103b5366004612162565b610ab0565b610225610adb565b610276600081565b6102706103d83660046120e7565b610aea565b6102706103eb3660046120e7565b610af5565b6102706103fe36600461206e565b610b7f565b61022561041136600461214a565b610bb7565b610270610424366004612162565b610bc2565b6102767f8f2e0057cd5e35397007bcc8f5418f73dd64cc6e4073a0276563f247c307903781565b61020861045e366004611fe7565b6001600160a01b03166000908152600d602052604090205460ff1690565b6102767f65d7a28e3265b37a6474929f336521b332c1681b933f6cb9f3376673440d862a81565b6102086104b1366004612001565b6001600160a01b03918216600090815260056020908152604080832093909416825291909152205460ff1690565b60006104ea82610be7565b90505b919050565b60606000805461050190612467565b80601f016020809104026020016040519081016040528092919081815260200182805461052d90612467565b801561057a5780601f1061054f5761010080835404028352916020019161057a565b820191906000526020600020905b81548152906001019060200180831161055d57829003601f168201915b5050505050905090565b600061058f82610c0c565b506000908152600460205260409020546001600160a01b031690565b60006105b682610998565b9050806001600160a01b0316836001600160a01b031614156106295760405162461bcd60e51b815260206004820152602160248201527f4552433732313a20617070726f76616c20746f2063757272656e74206f776e656044820152603960f91b60648201526084015b60405180910390fd5b336001600160a01b0382161480610645575061064581336104b1565b6106b75760405162461bcd60e51b815260206004820152603e60248201527f4552433732313a20617070726f76652063616c6c6572206973206e6f7420746f60448201527f6b656e206f776e6572206e6f7220617070726f76656420666f7220616c6c00006064820152608401610620565b6106c18383610c6b565b505050565b6106d1335b82610cd9565b6106ed5760405162461bcd60e51b815260040161062090612374565b6106c1838383610d58565b6000828152600c602052604090206001015461071381610eff565b6106c18383610f09565b6000610728836109f8565b821061078a5760405162461bcd60e51b815260206004820152602b60248201527f455243373231456e756d657261626c653a206f776e657220696e646578206f7560448201526a74206f6620626f756e647360a81b6064820152608401610620565b506001600160a01b03919091166000908152600660209081526040808320938352929052205490565b6001600160a01b03811633146108235760405162461bcd60e51b815260206004820152602f60248201527f416363657373436f6e74726f6c3a2063616e206f6e6c792072656e6f756e636560448201526e103937b632b9903337b91039b2b63360891b6064820152608401610620565b61082d8282610f8f565b5050565b7f65d7a28e3265b37a6474929f336521b332c1681b933f6cb9f3376673440d862a61085b81610eff565b610863610ff6565b50565b6106c183838360405180602001604052806000815250610b7f565b61088a336106cb565b6108a65760405162461bcd60e51b815260040161062090612374565b61086381611048565b60006108bf600e80546001019055565b60006108ca600e5490565b90506108d6338261107b565b6108e081846111ca565b600f546104ea906001600160a01b03166001610aea565b600061090260085490565b82106109655760405162461bcd60e51b815260206004820152602c60248201527f455243373231456e756d657261626c653a20676c6f62616c20696e646578206f60448201526b7574206f6620626f756e647360a01b6064820152608401610620565b6008828154811061098657634e487b7160e01b600052603260045260246000fd5b90600052602060002001549050919050565b6000818152600260205260408120546001600160a01b0316806104ea5760405162461bcd60e51b8152602060048201526018602482015277115490cdcc8c4e881a5b9d985b1a59081d1bdad95b88125160421b6044820152606401610620565b60006001600160a01b038216610a625760405162461bcd60e51b815260206004820152602960248201527f4552433732313a2061646472657373207a65726f206973206e6f7420612076616044820152683634b21037bbb732b960b91b6064820152608401610620565b506001600160a01b031660009081526003602052604090205490565b7f65d7a28e3265b37a6474929f336521b332c1681b933f6cb9f3376673440d862a610aa881610eff565b610863611264565b6000918252600c602090815260408084206001600160a01b0393909316845291905290205460ff1690565b60606001805461050190612467565b61082d3383836112a1565b7f8f2e0057cd5e35397007bcc8f5418f73dd64cc6e4073a0276563f247c3079037610b1f81610eff565b6001600160a01b0383166000818152600d6020908152604091829020805460ff191686151590811790915591519182527f6a12b3df6cba4203bd7fd06b816789f87de8c594299aed5717ae070fac781bac910160405180910390a2505050565b610b893383610cd9565b610ba55760405162461bcd60e51b815260040161062090612374565b610bb184848484611370565b50505050565b60606104ea826113a3565b6000828152600c6020526040902060010154610bdd81610eff565b6106c18383610f8f565b60006001600160e01b03198216637965db0b60e01b14806104ea57506104ea826114ad565b6000818152600260205260409020546001600160a01b03166108635760405162461bcd60e51b8152602060048201526018602482015277115490cdcc8c4e881a5b9d985b1a59081d1bdad95b88125160421b6044820152606401610620565b600081815260046020526040902080546001600160a01b0319166001600160a01b0384169081179091558190610ca082610998565b6001600160a01b03167f8c5be1e5ebec7d5bd14f71427d1e84f3dd0314c0f7b2291e5b200ac8c7c3b92560405160405180910390a45050565b600080610ce583610998565b9050806001600160a01b0316846001600160a01b03161480610d2c57506001600160a01b0380821660009081526005602090815260408083209388168352929052205460ff165b80610d505750836001600160a01b0316610d4584610584565b6001600160a01b0316145b949350505050565b826001600160a01b0316610d6b82610998565b6001600160a01b031614610dcf5760405162461bcd60e51b815260206004820152602560248201527f4552433732313a207472616e736665722066726f6d20696e636f72726563742060448201526437bbb732b960d91b6064820152608401610620565b6001600160a01b038216610e315760405162461bcd60e51b8152602060048201526024808201527f4552433732313a207472616e7366657220746f20746865207a65726f206164646044820152637265737360e01b6064820152608401610620565b610e3c8383836114d2565b610e47600082610c6b565b6001600160a01b0383166000908152600360205260408120805460019290610e7090849061240d565b90915550506001600160a01b0382166000908152600360205260408120805460019290610e9e9084906123c2565b909155505060008181526002602052604080822080546001600160a01b0319166001600160a01b0386811691821790925591518493918716917fddf252ad1be2c89b69c2b068fc378daa952ba7f163c4a11628f55a4df523b3ef91a46106c1565b6108638133611567565b610f138282610ab0565b61082d576000828152600c602090815260408083206001600160a01b03851684529091529020805460ff19166001179055610f4b3390565b6001600160a01b0316816001600160a01b0316837f2f8788117e7eff1d82e926ec794901d17c78024a50270940304540a733656f0d60405160405180910390a45050565b610f998282610ab0565b1561082d576000828152600c602090815260408083206001600160a01b0385168085529252808320805460ff1916905551339285917ff6391f5c32d9c69d2a47ea670b442974b53935d1edc7fd64eb21e047a839171b9190a45050565b610ffe6115cb565b600b805460ff191690557f5db9ee0a495bf2e6ff9c91a7834c1ba4fdd244a5e8aa4e537bd38aeae4b073aa335b6040516001600160a01b03909116815260200160405180910390a1565b7f3c11d16cbaffd01df69ce1c404f6340ee057498f5f00246190ea54220576a84861107281610eff565b61082d82611616565b6001600160a01b0382166110d15760405162461bcd60e51b815260206004820181905260248201527f4552433732313a206d696e7420746f20746865207a65726f20616464726573736044820152606401610620565b6000818152600260205260409020546001600160a01b0316156111365760405162461bcd60e51b815260206004820152601c60248201527f4552433732313a20746f6b656e20616c7265616479206d696e746564000000006044820152606401610620565b611142600083836114d2565b6001600160a01b038216600090815260036020526040812080546001929061116b9084906123c2565b909155505060008181526002602052604080822080546001600160a01b0319166001600160a01b03861690811790915590518392907fddf252ad1be2c89b69c2b068fc378daa952ba7f163c4a11628f55a4df523b3ef908290a461082d565b6000828152600260205260409020546001600160a01b03166112455760405162461bcd60e51b815260206004820152602e60248201527f45524337323155524953746f726167653a2055524920736574206f66206e6f6e60448201526d32bc34b9ba32b73a103a37b5b2b760911b6064820152608401610620565b6000828152600a6020908152604090912082516106c192840190611e89565b61126c611656565b600b805460ff191660011790557f62e78cea01bee320cd4e420270b5ea74000d11b0c9f74754ebdbfc544b05a25861102b3390565b816001600160a01b0316836001600160a01b031614156113035760405162461bcd60e51b815260206004820152601960248201527f4552433732313a20617070726f766520746f2063616c6c6572000000000000006044820152606401610620565b6001600160a01b03838116600081815260056020908152604080832094871680845294825291829020805460ff191686151590811790915591519182527f17307eab39ab6107e8899845ad3d59bd9653f200f220920489ca2b5937696c31910160405180910390a3505050565b61137b848484610d58565b6113878484848461169c565b610bb15760405162461bcd60e51b815260040161062090612322565b60606113ae82610c0c565b6000828152600a6020526040812080546113c790612467565b80601f01602080910402602001604051908101604052809291908181526020018280546113f390612467565b80156114405780601f1061141557610100808354040283529160200191611440565b820191906000526020600020905b81548152906001019060200180831161142357829003601f168201915b50505050509050600061145e60408051602081019091526000815290565b9050805160001415611472575090506104ed565b8151156114a457808260405160200161148c92919061222e565b604051602081830303815290604052925050506104ed565b610d50846117a9565b60006001600160e01b0319821663780e9d6360e01b14806104ea57506104ea8261181d565b6114da611656565b6001600160a01b0382166000908152600d602052604090205460ff161561155c5760405162461bcd60e51b815260206004820152603060248201527f546f6b656e207472616e7366657220726566757365642e20526563656976657260448201526f081a5cc81bdb88189b1858dadb1a5cdd60821b6064820152608401610620565b6106c183838361186d565b6115718282610ab0565b61082d57611589816001600160a01b0316601461192a565b61159483602061192a565b6040516020016115a592919061225d565b60408051601f198184030181529082905262461bcd60e51b82526106209160040161230f565b600b5460ff166116145760405162461bcd60e51b815260206004820152601460248201527314185d5cd8589b194e881b9bdd081c185d5cd95960621b6044820152606401610620565b565b61161f81611b0c565b6000818152600a60205260409020805461163890612467565b159050610863576000818152600a6020526040812061086391611f0d565b600b5460ff16156116145760405162461bcd60e51b815260206004820152601060248201526f14185d5cd8589b194e881c185d5cd95960821b6044820152606401610620565b60006001600160a01b0384163b1561179e57604051630a85bd0160e11b81526001600160a01b0385169063150b7a02906116e09033908990889088906004016122d2565b602060405180830381600087803b1580156116fa57600080fd5b505af192505050801561172a575060408051601f3d908101601f19168201909252611727918101906121a0565b60015b611784573d808015611758576040519150601f19603f3d011682016040523d82523d6000602084013e61175d565b606091505b50805161177c5760405162461bcd60e51b815260040161062090612322565b805181602001fd5b6001600160e01b031916630a85bd0160e11b149050610d50565b506001949350505050565b60606117b482610c0c565b60006117cb60408051602081019091526000815290565b905060008151116117eb5760405180602001604052806000815250611816565b806117f584611bb4565b60405160200161180692919061222e565b6040516020818303038152906040525b9392505050565b60006001600160e01b031982166380ac58cd60e01b148061184e57506001600160e01b03198216635b5e139f60e01b145b806104ea57506301ffc9a760e01b6001600160e01b03198316146104ea565b6001600160a01b0383166118c8576118c381600880546000838152600960205260408120829055600182018355919091527ff3f7a9fe364faab93b216da50a3214154f22a0a2b415b23a84c8169e8b636ee30155565b6118eb565b816001600160a01b0316836001600160a01b0316146118eb576118eb8382611ccf565b6001600160a01b0382166119075761190281611d6c565b6106c1565b826001600160a01b0316826001600160a01b0316146106c1576106c18282611e45565b606060006119398360026123ee565b6119449060026123c2565b67ffffffffffffffff81111561196a57634e487b7160e01b600052604160045260246000fd5b6040519080825280601f01601f191660200182016040528015611994576020820181803683370190505b509050600360fc1b816000815181106119bd57634e487b7160e01b600052603260045260246000fd5b60200101906001600160f81b031916908160001a905350600f60fb1b816001815181106119fa57634e487b7160e01b600052603260045260246000fd5b60200101906001600160f81b031916908160001a9053506000611a1e8460026123ee565b611a299060016123c2565b90505b6001811115611abd576f181899199a1a9b1b9c1cb0b131b232b360811b85600f1660108110611a6b57634e487b7160e01b600052603260045260246000fd5b1a60f81b828281518110611a8f57634e487b7160e01b600052603260045260246000fd5b60200101906001600160f81b031916908160001a90535060049490941c93611ab681612450565b9050611a2c565b5083156118165760405162461bcd60e51b815260206004820181905260248201527f537472696e67733a20686578206c656e67746820696e73756666696369656e746044820152606401610620565b6000611b1782610998565b9050611b25816000846114d2565b611b30600083610c6b565b6001600160a01b0381166000908152600360205260408120805460019290611b5990849061240d565b909155505060008281526002602052604080822080546001600160a01b0319169055518391906001600160a01b038416907fddf252ad1be2c89b69c2b068fc378daa952ba7f163c4a11628f55a4df523b3ef908390a461082d565b606081611bd957506040805180820190915260018152600360fc1b60208201526104ed565b8160005b8115611c035780611bed816124a2565b9150611bfc9050600a836123da565b9150611bdd565b60008167ffffffffffffffff811115611c2c57634e487b7160e01b600052604160045260246000fd5b6040519080825280601f01601f191660200182016040528015611c56576020820181803683370190505b5090505b8415610d5057611c6b60018361240d565b9150611c78600a866124bd565b611c839060306123c2565b60f81b818381518110611ca657634e487b7160e01b600052603260045260246000fd5b60200101906001600160f81b031916908160001a905350611cc8600a866123da565b9450611c5a565b60006001611cdc846109f8565b611ce6919061240d565b600083815260076020526040902054909150808214611d39576001600160a01b03841660009081526006602090815260408083208584528252808320548484528184208190558352600790915290208190555b5060009182526007602090815260408084208490556001600160a01b039094168352600681528383209183525290812055565b600854600090611d7e9060019061240d565b60008381526009602052604081205460088054939450909284908110611db457634e487b7160e01b600052603260045260246000fd5b906000526020600020015490508060088381548110611de357634e487b7160e01b600052603260045260246000fd5b6000918252602080832090910192909255828152600990915260408082208490558582528120556008805480611e2957634e487b7160e01b600052603160045260246000fd5b6001900381819060005260206000200160009055905550505050565b6000611e50836109f8565b6001600160a01b039093166000908152600660209081526040808320868452825280832085905593825260079052919091209190915550565b828054611e9590612467565b90600052602060002090601f016020900481019282611eb75760008555611efd565b82601f10611ed057805160ff1916838001178555611efd565b82800160010185558215611efd579182015b82811115611efd578251825591602001919060010190611ee2565b50611f09929150611f45565b5090565b508054611f1990612467565b6000825580601f10611f2b5750610863565b601f01602090049060005260206000209081019061086391905b5b80821115611f095760008155600101611f46565b600067ffffffffffffffff80841115611f7557611f756124fd565b604051601f8501601f19908116603f01168101908282118183101715611f9d57611f9d6124fd565b81604052809350858152868686011115611fb657600080fd5b858560208301376000602087830101525050509392505050565b80356001600160a01b03811681146104ed57600080fd5b600060208284031215611ff8578081fd5b61181682611fd0565b60008060408385031215612013578081fd5b61201c83611fd0565b915061202a60208401611fd0565b90509250929050565b600080600060608486031215612047578081fd5b61205084611fd0565b925061205e60208501611fd0565b9150604084013590509250925092565b60008060008060808587031215612083578081fd5b61208c85611fd0565b935061209a60208601611fd0565b925060408501359150606085013567ffffffffffffffff8111156120bc578182fd5b8501601f810187136120cc578182fd5b6120db87823560208401611f5a565b91505092959194509250565b600080604083850312156120f9578182fd5b61210283611fd0565b915060208301358015158114612116578182fd5b809150509250929050565b60008060408385031215612133578182fd5b61213c83611fd0565b946020939093013593505050565b60006020828403121561215b578081fd5b5035919050565b60008060408385031215612174578182fd5b8235915061202a60208401611fd0565b600060208284031215612195578081fd5b813561181681612513565b6000602082840312156121b1578081fd5b815161181681612513565b6000602082840312156121cd578081fd5b813567ffffffffffffffff8111156121e3578182fd5b8201601f810184136121f3578182fd5b610d5084823560208401611f5a565b6000815180845261221a816020860160208601612424565b601f01601f19169290920160200192915050565b60008351612240818460208801612424565b835190830190612254818360208801612424565b01949350505050565b60007f416363657373436f6e74726f6c3a206163636f756e742000000000000000000082528351612295816017850160208801612424565b7001034b99036b4b9b9b4b733903937b6329607d1b60179184019182015283516122c6816028840160208801612424565b01602801949350505050565b6001600160a01b038581168252841660208201526040810183905260806060820181905260009061230590830184612202565b9695505050505050565b6000602082526118166020830184612202565b60208082526032908201527f4552433732313a207472616e7366657220746f206e6f6e20455243373231526560408201527131b2b4bb32b91034b6b83632b6b2b73a32b960711b606082015260800190565b6020808252602e908201527f4552433732313a2063616c6c6572206973206e6f7420746f6b656e206f776e6560408201526d1c881b9bdc88185c1c1c9bdd995960921b606082015260800190565b600082198211156123d5576123d56124d1565b500190565b6000826123e9576123e96124e7565b500490565b6000816000190483118215151615612408576124086124d1565b500290565b60008282101561241f5761241f6124d1565b500390565b60005b8381101561243f578181015183820152602001612427565b83811115610bb15750506000910152565b60008161245f5761245f6124d1565b506000190190565b600181811c9082168061247b57607f821691505b6020821081141561249c57634e487b7160e01b600052602260045260246000fd5b50919050565b60006000198214156124b6576124b66124d1565b5060010190565b6000826124cc576124cc6124e7565b500690565b634e487b7160e01b600052601160045260246000fd5b634e487b7160e01b600052601260045260246000fd5b634e487b7160e01b600052604160045260246000fd5b6001600160e01b03198116811461086357600080fdfea264697066735822122036e3f87a642c0647f94832c142fbfe62a1571d549a04e56e4acc0755430df65964736f6c63430008030033",
  "linkReferences": {},
  "deployedLinkReferences": {}
}