{
  "_format": "hh-sol-artifact-1",
  "contractName": "ULTRAJAGUARCloud",
  "sourceName": "contracts/ULTRAJAGUARCloud.sol",
  "abi": [
    {
      "inputs": [],
      "stateMutability": "nonpayable",
      "type": "constructor"
    },
    {
      "anonymous": false,
      "inputs": [
        {
          "indexed": true,
          "internalType": "uint256",
          "name": "itemId",
          "type": "uint256"
        },
        {
          "indexed": true,
          "internalType": "address",
          "name": "nftContract",
          "type": "address"
        },
        {
          "indexed": true,
          "internalType": "uint256",
          "name": "tokenId",
          "type": "uint256"
        },
        {
          "indexed": false,
          "internalType": "address",
          "name": "seller",
          "type": "address"
        },
        {
          "indexed": false,
          "internalType": "address",
          "name": "creator",
          "type": "address"
        },
        {
          "indexed": false,
          "internalType": "bool",
          "name": "sold",
          "type": "bool"
        }
      ],
      "name": "MarketItemCreated",
      "type": "event"
    },
    {
      "anonymous": false,
      "inputs": [
        {
          "indexed": true,
          "internalType": "bytes32",
          "name": "role",
          "type": "bytes32"
        },
        {
          "indexed": true,
          "internalType": "bytes32",
          "name": "previousAdminRole",
          "type": "bytes32"
        },
        {
          "indexed": true,
          "internalType": "bytes32",
          "name": "newAdminRole",
          "type": "bytes32"
        }
      ],
      "name": "RoleAdminChanged",
      "type": "event"
    },
    {
      "anonymous": false,
      "inputs": [
        {
          "indexed": true,
          "internalType": "bytes32",
          "name": "role",
          "type": "bytes32"
        },
        {
          "indexed": true,
          "internalType": "address",
          "name": "account",
          "type": "address"
        },
        {
          "indexed": true,
          "internalType": "address",
          "name": "sender",
          "type": "address"
        }
      ],
      "name": "RoleGranted",
      "type": "event"
    },
    {
      "anonymous": false,
      "inputs": [
        {
          "indexed": true,
          "internalType": "bytes32",
          "name": "role",
          "type": "bytes32"
        },
        {
          "indexed": true,
          "internalType": "address",
          "name": "account",
          "type": "address"
        },
        {
          "indexed": true,
          "internalType": "address",
          "name": "sender",
          "type": "address"
        }
      ],
      "name": "RoleRevoked",
      "type": "event"
    },
    {
      "inputs": [],
      "name": "DEFAULT_ADMIN_ROLE",
      "outputs": [
        {
          "internalType": "bytes32",
          "name": "",
          "type": "bytes32"
        }
      ],
      "stateMutability": "view",
      "type": "function"
    },
    {
      "inputs": [],
      "name": "WITHDRAW_ROLE",
      "outputs": [
        {
          "internalType": "bytes32",
          "name": "",
          "type": "bytes32"
        }
      ],
      "stateMutability": "view",
      "type": "function"
    },
    {
      "inputs": [
        {
          "internalType": "address",
          "name": "nftContract",
          "type": "address"
        },
        {
          "internalType": "uint256",
          "name": "tokenId",
          "type": "uint256"
        }
      ],
      "name": "createMarketItem",
      "outputs": [],
      "stateMutability": "payable",
      "type": "function"
    },
    {
      "inputs": [
        {
          "internalType": "address",
          "name": "nftContract",
          "type": "address"
        },
        {
          "internalType": "uint256",
          "name": "itemId",
          "type": "uint256"
        }
      ],
      "name": "createMarketSale",
      "outputs": [],
      "stateMutability": "payable",
      "type": "function"
    },
    {
      "inputs": [],
      "name": "fetchItemsCreated",
      "outputs": [
        {
          "components": [
            {
              "internalType": "uint256",
              "name": "itemId",
              "type": "uint256"
            },
            {
              "internalType": "address",
              "name": "nftContract",
              "type": "address"
            },
            {
              "internalType": "uint256",
              "name": "tokenId",
              "type": "uint256"
            },
            {
              "internalType": "address payable",
              "name": "seller",
              "type": "address"
            },
            {
              "internalType": "address payable",
              "name": "creator",
              "type": "address"
            },
            {
              "internalType": "bool",
              "name": "sold",
              "type": "bool"
            }
          ],
          "internalType": "struct ULTRAJAGUARCloud.MarketItem[]",
          "name": "",
          "type": "tuple[]"
        }
      ],
      "stateMutability": "view",
      "type": "function"
    },
    {
      "inputs": [],
      "name": "fetchMarketItems",
      "outputs": [
        {
          "components": [
            {
              "internalType": "uint256",
              "name": "itemId",
              "type": "uint256"
            },
            {
              "internalType": "address",
              "name": "nftContract",
              "type": "address"
            },
            {
              "internalType": "uint256",
              "name": "tokenId",
              "type": "uint256"
            },
            {
              "internalType": "address payable",
              "name": "seller",
              "type": "address"
            },
            {
              "internalType": "address payable",
              "name": "creator",
              "type": "address"
            },
            {
              "internalType": "bool",
              "name": "sold",
              "type": "bool"
            }
          ],
          "internalType": "struct ULTRAJAGUARCloud.MarketItem[]",
          "name": "",
          "type": "tuple[]"
        }
      ],
      "stateMutability": "view",
      "type": "function"
    },
    {
      "inputs": [],
      "name": "fetchMyNFTs",
      "outputs": [
        {
          "components": [
            {
              "internalType": "uint256",
              "name": "itemId",
              "type": "uint256"
            },
            {
              "internalType": "address",
              "name": "nftContract",
              "type": "address"
            },
            {
              "internalType": "uint256",
              "name": "tokenId",
              "type": "uint256"
            },
            {
              "internalType": "address payable",
              "name": "seller",
              "type": "address"
            },
            {
              "internalType": "address payable",
              "name": "creator",
              "type": "address"
            },
            {
              "internalType": "bool",
              "name": "sold",
              "type": "bool"
            }
          ],
          "internalType": "struct ULTRAJAGUARCloud.MarketItem[]",
          "name": "",
          "type": "tuple[]"
        }
      ],
      "stateMutability": "view",
      "type": "function"
    },
    {
      "inputs": [
        {
          "internalType": "bytes32",
          "name": "role",
          "type": "bytes32"
        }
      ],
      "name": "getRoleAdmin",
      "outputs": [
        {
          "internalType": "bytes32",
          "name": "",
          "type": "bytes32"
        }
      ],
      "stateMutability": "view",
      "type": "function"
    },
    {
      "inputs": [
        {
          "internalType": "bytes32",
          "name": "role",
          "type": "bytes32"
        },
        {
          "internalType": "address",
          "name": "account",
          "type": "address"
        }
      ],
      "name": "grantRole",
      "outputs": [],
      "stateMutability": "nonpayable",
      "type": "function"
    },
    {
      "inputs": [
        {
          "internalType": "bytes32",
          "name": "role",
          "type": "bytes32"
        },
        {
          "internalType": "address",
          "name": "account",
          "type": "address"
        }
      ],
      "name": "hasRole",
      "outputs": [
        {
          "internalType": "bool",
          "name": "",
          "type": "bool"
        }
      ],
      "stateMutability": "view",
      "type": "function"
    },
    {
      "inputs": [
        {
          "internalType": "bytes32",
          "name": "role",
          "type": "bytes32"
        },
        {
          "internalType": "address",
          "name": "account",
          "type": "address"
        }
      ],
      "name": "renounceRole",
      "outputs": [],
      "stateMutability": "nonpayable",
      "type": "function"
    },
    {
      "inputs": [
        {
          "internalType": "bytes32",
          "name": "role",
          "type": "bytes32"
        },
        {
          "internalType": "address",
          "name": "account",
          "type": "address"
        }
      ],
      "name": "revokeRole",
      "outputs": [],
      "stateMutability": "nonpayable",
      "type": "function"
    },
    {
      "inputs": [
        {
          "internalType": "bytes4",
          "name": "interfaceId",
          "type": "bytes4"
        }
      ],
      "name": "supportsInterface",
      "outputs": [
        {
          "internalType": "bool",
          "name": "",
          "type": "bool"
        }
      ],
      "stateMutability": "view",
      "type": "function"
    },
    {
      "inputs": [
        {
          "internalType": "uint256",
          "name": "amount",
          "type": "uint256"
        }
      ],
      "name": "withdraw",
      "outputs": [],
      "stateMutability": "nonpayable",
      "type": "function"
    }
  ],
  "bytecode": "0x6080604052600480546001600160a01b03191673723b5ad644bde85a51d30c92ffc7bdb40f940fc617905534801561003657600080fd5b506001600090815560045461005491906001600160a01b03166100a2565b60045461008b907f5d8e12c39142ff96d79d04d15d1ba1269e4fe57bb9d26f43523628b34ba108ec906001600160a01b03166100a2565b600580546001600160a01b03191633179055610137565b6100ac82826100b0565b5050565b60008281526001602090815260408083206001600160a01b038516845290915290205460ff166100ac5760008281526001602081815260408084206001600160a01b0386168086529252808420805460ff19169093179092559051339285917f2f8788117e7eff1d82e926ec794901d17c78024a50270940304540a733656f0d9190a45050565b611359806101466000396000f3fe6080604052600436106100dd5760003560e01c806391d148541161007f578063d547741f11610059578063d547741f14610237578063dd5f851814610257578063e02023a11461026a578063f064c32e1461029e576100dd565b806391d14854146101ef578063a217fddf1461020f578063c23b139e14610224576100dd565b8063248a9ca3116100bb578063248a9ca31461014e5780632e1a7d4d1461018d5780632f2ff15d146101af57806336568abe146101cf576100dd565b806301ffc9a7146100e25780630f08efe014610117578063202e374014610139575b600080fd5b3480156100ee57600080fd5b506101026100fd3660046110cc565b6102b3565b60405190151581526020015b60405180910390f35b34801561012357600080fd5b5061012c6102ec565b60405161010e9190611169565b34801561014557600080fd5b5061012c61048e565b34801561015a57600080fd5b5061017f610169366004611089565b6000908152600160208190526040909120015490565b60405190815260200161010e565b34801561019957600080fd5b506101ad6101a8366004611089565b61066e565b005b3480156101bb57600080fd5b506101ad6101ca3660046110a1565b61075d565b3480156101db57600080fd5b506101ad6101ea3660046110a1565b610788565b3480156101fb57600080fd5b5061010261020a3660046110a1565b610806565b34801561021b57600080fd5b5061017f600081565b6101ad610232366004611060565b610831565b34801561024357600080fd5b506101ad6102523660046110a1565b61094c565b6101ad610265366004611060565b610972565b34801561027657600080fd5b5061017f7f5d8e12c39142ff96d79d04d15d1ba1269e4fe57bb9d26f43523628b34ba108ec81565b3480156102aa57600080fd5b5061012c610b08565b60006001600160e01b03198216637965db0b60e01b14806102e457506301ffc9a760e01b6001600160e01b03198316145b90505b919050565b606060006102f960025490565b9050600061030660035490565b6002546103139190611294565b90506000808267ffffffffffffffff81111561033f57634e487b7160e01b600052604160045260246000fd5b60405190808252806020026020018201604052801561037857816020015b610365611014565b81526020019060019003908161035d5790505b50905060005b8481101561048557600060068161039684600161125d565b81526020810191909152604001600020600401546001600160a01b031614156104735760006103c682600161125d565b600081815260066020908152604091829020825160c0810184528154815260018201546001600160a01b039081169382019390935260028201549381019390935260038101548216606084015260048101549182166080840152600160a01b90910460ff16151560a083015285519293509185908790811061045857634e487b7160e01b600052603260045260246000fd5b602090810291909101015261046e60018661125d565b945050505b8061047d816112f2565b91505061037e565b50935050505090565b6060600061049b60025490565b905060008060005b838110156104fe5733600660006104bb84600161125d565b81526020810191909152604001600020600401546001600160a01b031614156104ec576104e960018461125d565b92505b806104f6816112f2565b9150506104a3565b5060008267ffffffffffffffff81111561052857634e487b7160e01b600052604160045260246000fd5b60405190808252806020026020018201604052801561056157816020015b61054e611014565b8152602001906001900390816105465790505b50905060005b8481101561048557336006600061057f84600161125d565b81526020810191909152604001600020600401546001600160a01b0316141561065c5760006105af82600161125d565b600081815260066020908152604091829020825160c0810184528154815260018201546001600160a01b039081169382019390935260028201549381019390935260038101548216606084015260048101549182166080840152600160a01b90910460ff16151560a083015285519293509185908790811061064157634e487b7160e01b600052603260045260246000fd5b602090810291909101015261065760018661125d565b945050505b80610666816112f2565b915050610567565b7f5d8e12c39142ff96d79d04d15d1ba1269e4fe57bb9d26f43523628b34ba108ec61069881610ce8565b600260005414156106c45760405162461bcd60e51b81526004016106bb90611226565b60405180910390fd5b60026000908155604051339084908381818185875af1925050503d806000811461070a576040519150601f19603f3d011682016040523d82523d6000602084013e61070f565b606091505b50509050806107535760405162461bcd60e51b815260206004820152601060248201526f2a3930b739b332b9103330b4b632b21760811b60448201526064016106bb565b5050600160005550565b6000828152600160208190526040909120015461077981610ce8565b6107838383610cf5565b505050565b6001600160a01b03811633146107f85760405162461bcd60e51b815260206004820152602f60248201527f416363657373436f6e74726f6c3a2063616e206f6e6c792072656e6f756e636560448201526e103937b632b9903337b91039b2b63360891b60648201526084016106bb565b6108028282610d60565b5050565b60009182526001602090815260408084206001600160a01b0393909316845291905290205460ff1690565b600260005414156108545760405162461bcd60e51b81526004016106bb90611226565b60026000818155828152600660205260408082209283015460039093015490516001600160a01b03909116913480156108fc02929091818181858888f193505050501580156108a7573d6000803e3d6000fd5b506040516323b872dd60e01b8152306004820152336024820152604481018290526001600160a01b038416906323b872dd90606401600060405180830381600087803b1580156108f657600080fd5b505af115801561090a573d6000803e3d6000fd5b5050506000838152600660205260409020600401805460ff60a01b1933166001600160a81b031990911617600160a01b17905550610753600380546001019055565b6000828152600160208190526040909120015461096881610ce8565b6107838383610d60565b600260005414156109955760405162461bcd60e51b81526004016106bb90611226565b60026000818155815460010191829055906040805160c0810182528281526001600160a01b038681166020808401828152848601898152336060870181815260006080890181815260a08a018281528c83526006909752908a90209851895593516001890180549189166001600160a01b03199283161790559251600289015551600388018054918816919093161790915590516004958601805493511515600160a01b026001600160a81b031990941691909516179190911790925592516323b872dd60e01b81529182015230602482015260448101859052919250906323b872dd90606401600060405180830381600087803b158015610a9657600080fd5b505af1158015610aaa573d6000803e3d6000fd5b5050604080513381526000602082018190528183015290518593506001600160a01b038716925084917f3e2bb8636b8b3895badbf3d8707693bf25ba46ee1e95ac042e5a563e4756df21919081900360600190a45050600160005550565b60606000610b1560025490565b905060008060005b83811015610b78573360066000610b3584600161125d565b81526020810191909152604001600020600301546001600160a01b03161415610b6657610b6360018461125d565b92505b80610b70816112f2565b915050610b1d565b5060008267ffffffffffffffff811115610ba257634e487b7160e01b600052604160045260246000fd5b604051908082528060200260200182016040528015610bdb57816020015b610bc8611014565b815260200190600190039081610bc05790505b50905060005b84811015610485573360066000610bf984600161125d565b81526020810191909152604001600020600301546001600160a01b03161415610cd6576000610c2982600161125d565b600081815260066020908152604091829020825160c0810184528154815260018201546001600160a01b039081169382019390935260028201549381019390935260038101548216606084015260048101549182166080840152600160a01b90910460ff16151560a0830152855192935091859087908110610cbb57634e487b7160e01b600052603260045260246000fd5b6020908102919091010152610cd160018661125d565b945050505b80610ce0816112f2565b915050610be1565b610cf28133610dc7565b50565b610cff8282610806565b6108025760008281526001602081815260408084206001600160a01b0386168086529252808420805460ff19169093179092559051339285917f2f8788117e7eff1d82e926ec794901d17c78024a50270940304540a733656f0d9190a45050565b610d6a8282610806565b156108025760008281526001602090815260408083206001600160a01b0385168085529252808320805460ff1916905551339285917ff6391f5c32d9c69d2a47ea670b442974b53935d1edc7fd64eb21e047a839171b9190a45050565b610dd18282610806565b61080257610de9816001600160a01b03166014610e2b565b610df4836020610e2b565b604051602001610e059291906110f4565b60408051601f198184030181529082905262461bcd60e51b82526106bb916004016111f3565b60606000610e3a836002611275565b610e4590600261125d565b67ffffffffffffffff811115610e6b57634e487b7160e01b600052604160045260246000fd5b6040519080825280601f01601f191660200182016040528015610e95576020820181803683370190505b509050600360fc1b81600081518110610ebe57634e487b7160e01b600052603260045260246000fd5b60200101906001600160f81b031916908160001a905350600f60fb1b81600181518110610efb57634e487b7160e01b600052603260045260246000fd5b60200101906001600160f81b031916908160001a9053506000610f1f846002611275565b610f2a90600161125d565b90505b6001811115610fbe576f181899199a1a9b1b9c1cb0b131b232b360811b85600f1660108110610f6c57634e487b7160e01b600052603260045260246000fd5b1a60f81b828281518110610f9057634e487b7160e01b600052603260045260246000fd5b60200101906001600160f81b031916908160001a90535060049490941c93610fb7816112db565b9050610f2d565b50831561100d5760405162461bcd60e51b815260206004820181905260248201527f537472696e67733a20686578206c656e67746820696e73756666696369656e7460448201526064016106bb565b9392505050565b6040805160c081018252600080825260208201819052918101829052606081018290526080810182905260a081019190915290565b80356001600160a01b03811681146102e757600080fd5b60008060408385031215611072578182fd5b61107b83611049565b946020939093013593505050565b60006020828403121561109a578081fd5b5035919050565b600080604083850312156110b3578182fd5b823591506110c360208401611049565b90509250929050565b6000602082840312156110dd578081fd5b81356001600160e01b03198116811461100d578182fd5b60007f416363657373436f6e74726f6c3a206163636f756e74200000000000000000008252835161112c8160178501602088016112ab565b7001034b99036b4b9b9b4b733903937b6329607d1b601791840191820152835161115d8160288401602088016112ab565b01602801949350505050565b602080825282518282018190526000919060409081850190868401855b828110156111e657815180518552868101516001600160a01b039081168887015286820151878701526060808301518216908701526080808301519091169086015260a09081015115159085015260c09093019290850190600101611186565b5091979650505050505050565b60006020825282518060208401526112128160408501602087016112ab565b601f01601f19169190910160400192915050565b6020808252601f908201527f5265656e7472616e637947756172643a207265656e7472616e742063616c6c00604082015260600190565b600082198211156112705761127061130d565b500190565b600081600019048311821515161561128f5761128f61130d565b500290565b6000828210156112a6576112a661130d565b500390565b60005b838110156112c65781810151838201526020016112ae565b838111156112d5576000848401525b50505050565b6000816112ea576112ea61130d565b506000190190565b60006000198214156113065761130661130d565b5060010190565b634e487b7160e01b600052601160045260246000fdfea2646970667358221220fa46eb377d8bf1ad187b66dc34a6d5b45879e801a4886c7cd19160d3d70d50bc64736f6c63430008030033",
  "linkReferences": {},
  "deployedLinkReferences": {}
}