{
  "_format": "hh-sol-artifact-1",
  "contractName": "ULTRAJAGUARCloud",
  "sourceName": "contracts/ULTRAJAGUARCloud.sol",
  "abi": [
    {
      "inputs": [],
      "stateMutability": "nonpayable",
      "type": "constructor"
    },
    {
      "anonymous": false,
      "inputs": [
        {
          "indexed": true,
          "internalType": "uint256",
          "name": "itemId",
          "type": "uint256"
        },
        {
          "indexed": true,
          "internalType": "address",
          "name": "nftContract",
          "type": "address"
        },
        {
          "indexed": true,
          "internalType": "uint256",
          "name": "tokenId",
          "type": "uint256"
        },
        {
          "indexed": false,
          "internalType": "address",
          "name": "seller",
          "type": "address"
        },
        {
          "indexed": false,
          "internalType": "address",
          "name": "creator",
          "type": "address"
        },
        {
          "indexed": false,
          "internalType": "uint256",
          "name": "price",
          "type": "uint256"
        },
        {
          "indexed": false,
          "internalType": "bool",
          "name": "sold",
          "type": "bool"
        }
      ],
      "name": "MarketItemCreated",
      "type": "event"
    },
    {
      "anonymous": false,
      "inputs": [
        {
          "indexed": true,
          "internalType": "bytes32",
          "name": "role",
          "type": "bytes32"
        },
        {
          "indexed": true,
          "internalType": "bytes32",
          "name": "previousAdminRole",
          "type": "bytes32"
        },
        {
          "indexed": true,
          "internalType": "bytes32",
          "name": "newAdminRole",
          "type": "bytes32"
        }
      ],
      "name": "RoleAdminChanged",
      "type": "event"
    },
    {
      "anonymous": false,
      "inputs": [
        {
          "indexed": true,
          "internalType": "bytes32",
          "name": "role",
          "type": "bytes32"
        },
        {
          "indexed": true,
          "internalType": "address",
          "name": "account",
          "type": "address"
        },
        {
          "indexed": true,
          "internalType": "address",
          "name": "sender",
          "type": "address"
        }
      ],
      "name": "RoleGranted",
      "type": "event"
    },
    {
      "anonymous": false,
      "inputs": [
        {
          "indexed": true,
          "internalType": "bytes32",
          "name": "role",
          "type": "bytes32"
        },
        {
          "indexed": true,
          "internalType": "address",
          "name": "account",
          "type": "address"
        },
        {
          "indexed": true,
          "internalType": "address",
          "name": "sender",
          "type": "address"
        }
      ],
      "name": "RoleRevoked",
      "type": "event"
    },
    {
      "inputs": [],
      "name": "DEFAULT_ADMIN_ROLE",
      "outputs": [
        {
          "internalType": "bytes32",
          "name": "",
          "type": "bytes32"
        }
      ],
      "stateMutability": "view",
      "type": "function"
    },
    {
      "inputs": [],
      "name": "WITHDRAW_ROLE",
      "outputs": [
        {
          "internalType": "bytes32",
          "name": "",
          "type": "bytes32"
        }
      ],
      "stateMutability": "view",
      "type": "function"
    },
    {
      "inputs": [
        {
          "internalType": "address",
          "name": "nftContract",
          "type": "address"
        },
        {
          "internalType": "uint256",
          "name": "tokenId",
          "type": "uint256"
        },
        {
          "internalType": "uint256",
          "name": "price",
          "type": "uint256"
        }
      ],
      "name": "createMarketItem",
      "outputs": [],
      "stateMutability": "payable",
      "type": "function"
    },
    {
      "inputs": [
        {
          "internalType": "address",
          "name": "nftContract",
          "type": "address"
        },
        {
          "internalType": "uint256",
          "name": "itemId",
          "type": "uint256"
        }
      ],
      "name": "createMarketSale",
      "outputs": [],
      "stateMutability": "payable",
      "type": "function"
    },
    {
      "inputs": [],
      "name": "fetchItemsCreated",
      "outputs": [
        {
          "components": [
            {
              "internalType": "uint256",
              "name": "itemId",
              "type": "uint256"
            },
            {
              "internalType": "address",
              "name": "nftContract",
              "type": "address"
            },
            {
              "internalType": "uint256",
              "name": "tokenId",
              "type": "uint256"
            },
            {
              "internalType": "address payable",
              "name": "seller",
              "type": "address"
            },
            {
              "internalType": "address payable",
              "name": "creator",
              "type": "address"
            },
            {
              "internalType": "uint256",
              "name": "price",
              "type": "uint256"
            },
            {
              "internalType": "bool",
              "name": "sold",
              "type": "bool"
            }
          ],
          "internalType": "struct ULTRAJAGUARCloud.MarketItem[]",
          "name": "",
          "type": "tuple[]"
        }
      ],
      "stateMutability": "view",
      "type": "function"
    },
    {
      "inputs": [],
      "name": "fetchMarketItems",
      "outputs": [
        {
          "components": [
            {
              "internalType": "uint256",
              "name": "itemId",
              "type": "uint256"
            },
            {
              "internalType": "address",
              "name": "nftContract",
              "type": "address"
            },
            {
              "internalType": "uint256",
              "name": "tokenId",
              "type": "uint256"
            },
            {
              "internalType": "address payable",
              "name": "seller",
              "type": "address"
            },
            {
              "internalType": "address payable",
              "name": "creator",
              "type": "address"
            },
            {
              "internalType": "uint256",
              "name": "price",
              "type": "uint256"
            },
            {
              "internalType": "bool",
              "name": "sold",
              "type": "bool"
            }
          ],
          "internalType": "struct ULTRAJAGUARCloud.MarketItem[]",
          "name": "",
          "type": "tuple[]"
        }
      ],
      "stateMutability": "view",
      "type": "function"
    },
    {
      "inputs": [],
      "name": "fetchMyNFTs",
      "outputs": [
        {
          "components": [
            {
              "internalType": "uint256",
              "name": "itemId",
              "type": "uint256"
            },
            {
              "internalType": "address",
              "name": "nftContract",
              "type": "address"
            },
            {
              "internalType": "uint256",
              "name": "tokenId",
              "type": "uint256"
            },
            {
              "internalType": "address payable",
              "name": "seller",
              "type": "address"
            },
            {
              "internalType": "address payable",
              "name": "creator",
              "type": "address"
            },
            {
              "internalType": "uint256",
              "name": "price",
              "type": "uint256"
            },
            {
              "internalType": "bool",
              "name": "sold",
              "type": "bool"
            }
          ],
          "internalType": "struct ULTRAJAGUARCloud.MarketItem[]",
          "name": "",
          "type": "tuple[]"
        }
      ],
      "stateMutability": "view",
      "type": "function"
    },
    {
      "inputs": [],
      "name": "getListingPrice",
      "outputs": [
        {
          "internalType": "uint256",
          "name": "",
          "type": "uint256"
        }
      ],
      "stateMutability": "view",
      "type": "function"
    },
    {
      "inputs": [
        {
          "internalType": "bytes32",
          "name": "role",
          "type": "bytes32"
        }
      ],
      "name": "getRoleAdmin",
      "outputs": [
        {
          "internalType": "bytes32",
          "name": "",
          "type": "bytes32"
        }
      ],
      "stateMutability": "view",
      "type": "function"
    },
    {
      "inputs": [
        {
          "internalType": "bytes32",
          "name": "role",
          "type": "bytes32"
        },
        {
          "internalType": "address",
          "name": "account",
          "type": "address"
        }
      ],
      "name": "grantRole",
      "outputs": [],
      "stateMutability": "nonpayable",
      "type": "function"
    },
    {
      "inputs": [
        {
          "internalType": "bytes32",
          "name": "role",
          "type": "bytes32"
        },
        {
          "internalType": "address",
          "name": "account",
          "type": "address"
        }
      ],
      "name": "hasRole",
      "outputs": [
        {
          "internalType": "bool",
          "name": "",
          "type": "bool"
        }
      ],
      "stateMutability": "view",
      "type": "function"
    },
    {
      "inputs": [
        {
          "internalType": "bytes32",
          "name": "role",
          "type": "bytes32"
        },
        {
          "internalType": "address",
          "name": "account",
          "type": "address"
        }
      ],
      "name": "renounceRole",
      "outputs": [],
      "stateMutability": "nonpayable",
      "type": "function"
    },
    {
      "inputs": [
        {
          "internalType": "bytes32",
          "name": "role",
          "type": "bytes32"
        },
        {
          "internalType": "address",
          "name": "account",
          "type": "address"
        }
      ],
      "name": "revokeRole",
      "outputs": [],
      "stateMutability": "nonpayable",
      "type": "function"
    },
    {
      "inputs": [
        {
          "internalType": "bytes4",
          "name": "interfaceId",
          "type": "bytes4"
        }
      ],
      "name": "supportsInterface",
      "outputs": [
        {
          "internalType": "bool",
          "name": "",
          "type": "bool"
        }
      ],
      "stateMutability": "view",
      "type": "function"
    },
    {
      "inputs": [
        {
          "internalType": "uint256",
          "name": "amount",
          "type": "uint256"
        }
      ],
      "name": "withdraw",
      "outputs": [],
      "stateMutability": "nonpayable",
      "type": "function"
    }
  ],
  "bytecode": "0x6080604052600480546001600160a01b03191673723b5ad644bde85a51d30c92ffc7bdb40f940fc6179055600060065534801561003b57600080fd5b506001600090815560045461005991906001600160a01b03166100a7565b600454610090907f5d8e12c39142ff96d79d04d15d1ba1269e4fe57bb9d26f43523628b34ba108ec906001600160a01b03166100a7565b600580546001600160a01b0319163317905561013c565b6100b182826100b5565b5050565b60008281526001602090815260408083206001600160a01b038516845290915290205460ff166100b15760008281526001602081815260408084206001600160a01b0386168086529252808420805460ff19169093179092559051339285917f2f8788117e7eff1d82e926ec794901d17c78024a50270940304540a733656f0d9190a45050565b61156e8061014b6000396000f3fe6080604052600436106100e85760003560e01c806336568abe1161008a578063c23b139e11610059578063c23b139e14610253578063d547741f14610266578063e02023a114610286578063f064c32e146102ba576100e8565b806336568abe146101eb57806358eb2df51461020b57806391d148541461021e578063a217fddf1461023e576100e8565b8063202e3740116100c6578063202e374014610163578063248a9ca3146101785780632e1a7d4d146101a95780632f2ff15d146101cb576100e8565b806301ffc9a7146100ed5780630f08efe01461012257806312e8558514610144575b600080fd5b3480156100f957600080fd5b5061010d6101083660046112d7565b6102cf565b60405190151581526020015b60405180910390f35b34801561012e57600080fd5b50610137610308565b6040516101199190611374565b34801561015057600080fd5b506006545b604051908152602001610119565b34801561016f57600080fd5b506101376104b1565b34801561018457600080fd5b50610155610193366004611294565b6000908152600160208190526040909120015490565b3480156101b557600080fd5b506101c96101c4366004611294565b610698565b005b3480156101d757600080fd5b506101c96101e63660046112ac565b610787565b3480156101f757600080fd5b506101c96102063660046112ac565b6107b2565b6101c9610219366004611262565b610830565b34801561022a57600080fd5b5061010d6102393660046112ac565b610a98565b34801561024a57600080fd5b50610155600081565b6101c9610261366004611239565b610ac3565b34801561027257600080fd5b506101c96102813660046112ac565b610cad565b34801561029257600080fd5b506101557f5d8e12c39142ff96d79d04d15d1ba1269e4fe57bb9d26f43523628b34ba108ec81565b3480156102c657600080fd5b50610137610cd3565b60006001600160e01b03198216637965db0b60e01b148061030057506301ffc9a760e01b6001600160e01b03198316145b90505b919050565b6060600061031560025490565b9050600061032260035490565b60025461032f91906114a9565b90506000808267ffffffffffffffff81111561035b57634e487b7160e01b600052604160045260246000fd5b60405190808252806020026020018201604052801561039457816020015b6103816111e6565b8152602001906001900390816103795790505b50905060005b848110156104a85760006007816103b2846001611472565b81526020810191909152604001600020600401546001600160a01b031614156104965760006103e2826001611472565b600081815260076020908152604091829020825160e0810184528154815260018201546001600160a01b039081169382019390935260028201549381019390935260038101548216606084015260048101549091166080830152600581015460a0830152600681015460ff16151560c083015285519293509185908790811061047b57634e487b7160e01b600052603260045260246000fd5b6020908102919091010152610491600186611472565b945050505b806104a081611507565b91505061039a565b50935050505090565b606060006104be60025490565b905060008060005b838110156105215733600760006104de846001611472565b81526020810191909152604001600020600401546001600160a01b0316141561050f5761050c600184611472565b92505b8061051981611507565b9150506104c6565b5060008267ffffffffffffffff81111561054b57634e487b7160e01b600052604160045260246000fd5b60405190808252806020026020018201604052801561058457816020015b6105716111e6565b8152602001906001900390816105695790505b50905060005b848110156104a85733600760006105a2846001611472565b81526020810191909152604001600020600401546001600160a01b031614156106865760006105d2826001611472565b600081815260076020908152604091829020825160e0810184528154815260018201546001600160a01b039081169382019390935260028201549381019390935260038101548216606084015260048101549091166080830152600581015460a0830152600681015460ff16151560c083015285519293509185908790811061066b57634e487b7160e01b600052603260045260246000fd5b6020908102919091010152610681600186611472565b945050505b8061069081611507565b91505061058a565b7f5d8e12c39142ff96d79d04d15d1ba1269e4fe57bb9d26f43523628b34ba108ec6106c281610eba565b600260005414156106ee5760405162461bcd60e51b81526004016106e59061143b565b60405180910390fd5b60026000908155604051339084908381818185875af1925050503d8060008114610734576040519150601f19603f3d011682016040523d82523d6000602084013e610739565b606091505b505090508061077d5760405162461bcd60e51b815260206004820152601060248201526f2a3930b739b332b9103330b4b632b21760811b60448201526064016106e5565b5050600160005550565b600082815260016020819052604090912001546107a381610eba565b6107ad8383610ec7565b505050565b6001600160a01b03811633146108225760405162461bcd60e51b815260206004820152602f60248201527f416363657373436f6e74726f6c3a2063616e206f6e6c792072656e6f756e636560448201526e103937b632b9903337b91039b2b63360891b60648201526084016106e5565b61082c8282610f32565b5050565b600260005414156108535760405162461bcd60e51b81526004016106e59061143b565b6002600055806108a55760405162461bcd60e51b815260206004820152601c60248201527f5072696365206d757374206265206174206c656173742031207765690000000060448201526064016106e5565b60065434146109025760405162461bcd60e51b8152602060048201526024808201527f5072696365206d75737420626520657175616c20746f206c697374696e6720706044820152637269636560e01b60648201526084016106e5565b610910600280546001019055565b600061091b60025490565b6040805160e0810182528281526001600160a01b0387811660208084018281528486018a8152336060870181815260006080890181815260a08a018e815260c08b018381528d84526007909852918b902099518a55945160018a018054918a166001600160a01b0319928316179055935160028a015590516003890180549189169185169190911790559251600480890180549290981691909316179095559051600586015590516006909401805494151560ff199095169490941790935592516323b872dd60e01b81529182015230602482015260448101869052919250906323b872dd90606401600060405180830381600087803b158015610a1e57600080fd5b505af1158015610a32573d6000803e3d6000fd5b505060408051338152600060208201819052818301879052606082015290518693506001600160a01b038816925084917f045dfa01dcba2b36aba1d3dc4a874f4b0c5d2fbeb8d2c4b34a7d88c8d8f929d1919081900360800190a4505060016000555050565b60009182526001602090815260408084206001600160a01b0393909316845291905290205460ff1690565b60026000541415610ae65760405162461bcd60e51b81526004016106e59061143b565b600260008181558281526007602052604090206005810154910154348214610b78576040805162461bcd60e51b81526020600482015260248101919091527f506c65617365207375626d6974207468652061736b696e67207072696365206960448201527f6e206f7264657220746f20636f6d706c6574652074686520707572636861736560648201526084016106e5565b6000838152600760205260408082206003015490516001600160a01b03909116913480156108fc02929091818181858888f19350505050158015610bc0573d6000803e3d6000fd5b506040516323b872dd60e01b8152306004820152336024820152604481018290526001600160a01b038516906323b872dd90606401600060405180830381600087803b158015610c0f57600080fd5b505af1158015610c23573d6000803e3d6000fd5b50505060008481526007602052604090206004810180546001600160a01b03191633179055600601805460ff1916600117905550610c65600380546001019055565b6005546006546040516001600160a01b039092169181156108fc0291906000818181858888f19350505050158015610ca1573d6000803e3d6000fd5b50506001600055505050565b60008281526001602081905260409091200154610cc981610eba565b6107ad8383610f32565b60606000610ce060025490565b905060008060005b83811015610d43573360076000610d00846001611472565b81526020810191909152604001600020600301546001600160a01b03161415610d3157610d2e600184611472565b92505b80610d3b81611507565b915050610ce8565b5060008267ffffffffffffffff811115610d6d57634e487b7160e01b600052604160045260246000fd5b604051908082528060200260200182016040528015610da657816020015b610d936111e6565b815260200190600190039081610d8b5790505b50905060005b848110156104a8573360076000610dc4846001611472565b81526020810191909152604001600020600301546001600160a01b03161415610ea8576000610df4826001611472565b600081815260076020908152604091829020825160e0810184528154815260018201546001600160a01b039081169382019390935260028201549381019390935260038101548216606084015260048101549091166080830152600581015460a0830152600681015460ff16151560c0830152855192935091859087908110610e8d57634e487b7160e01b600052603260045260246000fd5b6020908102919091010152610ea3600186611472565b945050505b80610eb281611507565b915050610dac565b610ec48133610f99565b50565b610ed18282610a98565b61082c5760008281526001602081815260408084206001600160a01b0386168086529252808420805460ff19169093179092559051339285917f2f8788117e7eff1d82e926ec794901d17c78024a50270940304540a733656f0d9190a45050565b610f3c8282610a98565b1561082c5760008281526001602090815260408083206001600160a01b0385168085529252808320805460ff1916905551339285917ff6391f5c32d9c69d2a47ea670b442974b53935d1edc7fd64eb21e047a839171b9190a45050565b610fa38282610a98565b61082c57610fbb816001600160a01b03166014610ffd565b610fc6836020610ffd565b604051602001610fd79291906112ff565b60408051601f198184030181529082905262461bcd60e51b82526106e591600401611408565b6060600061100c83600261148a565b611017906002611472565b67ffffffffffffffff81111561103d57634e487b7160e01b600052604160045260246000fd5b6040519080825280601f01601f191660200182016040528015611067576020820181803683370190505b509050600360fc1b8160008151811061109057634e487b7160e01b600052603260045260246000fd5b60200101906001600160f81b031916908160001a905350600f60fb1b816001815181106110cd57634e487b7160e01b600052603260045260246000fd5b60200101906001600160f81b031916908160001a90535060006110f184600261148a565b6110fc906001611472565b90505b6001811115611190576f181899199a1a9b1b9c1cb0b131b232b360811b85600f166010811061113e57634e487b7160e01b600052603260045260246000fd5b1a60f81b82828151811061116257634e487b7160e01b600052603260045260246000fd5b60200101906001600160f81b031916908160001a90535060049490941c93611189816114f0565b90506110ff565b5083156111df5760405162461bcd60e51b815260206004820181905260248201527f537472696e67733a20686578206c656e67746820696e73756666696369656e7460448201526064016106e5565b9392505050565b6040805160e081018252600080825260208201819052918101829052606081018290526080810182905260a0810182905260c081019190915290565b80356001600160a01b038116811461030357600080fd5b6000806040838503121561124b578182fd5b61125483611222565b946020939093013593505050565b600080600060608486031215611276578081fd5b61127f84611222565b95602085013595506040909401359392505050565b6000602082840312156112a5578081fd5b5035919050565b600080604083850312156112be578182fd5b823591506112ce60208401611222565b90509250929050565b6000602082840312156112e8578081fd5b81356001600160e01b0319811681146111df578182fd5b60007f416363657373436f6e74726f6c3a206163636f756e7420000000000000000000825283516113378160178501602088016114c0565b7001034b99036b4b9b9b4b733903937b6329607d1b60179184019182015283516113688160288401602088016114c0565b01602801949350505050565b602080825282518282018190526000919060409081850190868401855b828110156113fb57815180518552868101516001600160a01b039081168887015286820151878701526060808301518216908701526080808301519091169086015260a0808201519086015260c09081015115159085015260e09093019290850190600101611391565b5091979650505050505050565b60006020825282518060208401526114278160408501602087016114c0565b601f01601f19169190910160400192915050565b6020808252601f908201527f5265656e7472616e637947756172643a207265656e7472616e742063616c6c00604082015260600190565b6000821982111561148557611485611522565b500190565b60008160001904831182151516156114a4576114a4611522565b500290565b6000828210156114bb576114bb611522565b500390565b60005b838110156114db5781810151838201526020016114c3565b838111156114ea576000848401525b50505050565b6000816114ff576114ff611522565b506000190190565b600060001982141561151b5761151b611522565b5060010190565b634e487b7160e01b600052601160045260246000fdfea26469706673582212206f848449ace4907afe1279e85a8ce7e22360b83b81adbb5b86b1fb024369250d64736f6c63430008030033",
  "linkReferences": {},
  "deployedLinkReferences": {}
}